{
  "contractName": "DEXTokenRegistry",
  "abi": [
    {
      "anonymous": false,
      "inputs": [
        {
          "indexed": false,
          "internalType": "uint256",
          "name": "listId",
          "type": "uint256"
        },
        {
          "indexed": false,
          "internalType": "string",
          "name": "listName",
          "type": "string"
        }
      ],
      "name": "AddList",
      "type": "event"
    },
    {
      "anonymous": false,
      "inputs": [
        {
          "indexed": false,
          "internalType": "uint256",
          "name": "listId",
          "type": "uint256"
        },
        {
          "indexed": false,
          "internalType": "address",
          "name": "token",
          "type": "address"
        }
      ],
      "name": "AddToken",
      "type": "event"
    },
    {
      "anonymous": false,
      "inputs": [
        {
          "indexed": true,
          "internalType": "address",
          "name": "previousOwner",
          "type": "address"
        },
        {
          "indexed": true,
          "internalType": "address",
          "name": "newOwner",
          "type": "address"
        }
      ],
      "name": "OwnershipTransferred",
      "type": "event"
    },
    {
      "anonymous": false,
      "inputs": [
        {
          "indexed": false,
          "internalType": "uint256",
          "name": "listId",
          "type": "uint256"
        },
        {
          "indexed": false,
          "internalType": "address",
          "name": "token",
          "type": "address"
        }
      ],
      "name": "RemoveToken",
      "type": "event"
    },
    {
      "inputs": [],
      "name": "listCount",
      "outputs": [
        {
          "internalType": "uint256",
          "name": "",
          "type": "uint256"
        }
      ],
      "stateMutability": "view",
      "type": "function"
    },
    {
      "inputs": [],
      "name": "owner",
      "outputs": [
        {
          "internalType": "address",
          "name": "",
          "type": "address"
        }
      ],
      "stateMutability": "view",
      "type": "function"
    },
    {
      "inputs": [],
      "name": "renounceOwnership",
      "outputs": [],
      "stateMutability": "nonpayable",
      "type": "function"
    },
    {
      "inputs": [
        {
          "internalType": "uint256",
          "name": "",
          "type": "uint256"
        }
      ],
      "name": "tcrs",
      "outputs": [
        {
          "internalType": "uint256",
          "name": "listId",
          "type": "uint256"
        },
        {
          "internalType": "string",
          "name": "listName",
          "type": "string"
        },
        {
          "internalType": "uint256",
          "name": "activeTokenCount",
          "type": "uint256"
        }
      ],
      "stateMutability": "view",
      "type": "function"
    },
    {
      "inputs": [
        {
          "internalType": "address",
          "name": "newOwner",
          "type": "address"
        }
      ],
      "name": "transferOwnership",
      "outputs": [],
      "stateMutability": "nonpayable",
      "type": "function"
    },
    {
      "inputs": [
        {
          "internalType": "string",
          "name": "_listName",
          "type": "string"
        }
      ],
      "name": "addList",
      "outputs": [
        {
          "internalType": "uint256",
          "name": "",
          "type": "uint256"
        }
      ],
      "stateMutability": "nonpayable",
      "type": "function"
    },
    {
      "inputs": [
        {
          "internalType": "uint256",
          "name": "_listId",
          "type": "uint256"
        },
        {
          "internalType": "address[]",
          "name": "_tokens",
          "type": "address[]"
        }
      ],
      "name": "addTokens",
      "outputs": [],
      "stateMutability": "nonpayable",
      "type": "function"
    },
    {
      "inputs": [
        {
          "internalType": "uint256",
          "name": "_listId",
          "type": "uint256"
        },
        {
          "internalType": "address[]",
          "name": "_tokens",
          "type": "address[]"
        }
      ],
      "name": "removeTokens",
      "outputs": [],
      "stateMutability": "nonpayable",
      "type": "function"
    },
    {
      "inputs": [
        {
          "internalType": "uint256",
          "name": "_listId",
          "type": "uint256"
        }
      ],
      "name": "getTokens",
      "outputs": [
        {
          "internalType": "address[]",
          "name": "",
          "type": "address[]"
        }
      ],
      "stateMutability": "view",
      "type": "function"
    },
    {
      "inputs": [
        {
          "internalType": "uint256",
          "name": "_listId",
          "type": "uint256"
        },
        {
          "internalType": "uint256",
          "name": "_start",
          "type": "uint256"
        },
        {
          "internalType": "uint256",
          "name": "_end",
          "type": "uint256"
        }
      ],
      "name": "getTokensRange",
      "outputs": [
        {
          "internalType": "address[]",
          "name": "tokensRange",
          "type": "address[]"
        }
      ],
      "stateMutability": "view",
      "type": "function"
    },
    {
      "inputs": [
        {
          "internalType": "uint256",
          "name": "_listId",
          "type": "uint256"
        },
        {
          "internalType": "address",
          "name": "_token",
          "type": "address"
        }
      ],
      "name": "isTokenActive",
      "outputs": [
        {
          "internalType": "bool",
          "name": "",
          "type": "bool"
        }
      ],
      "stateMutability": "view",
      "type": "function"
    },
    {
      "inputs": [
        {
          "internalType": "address[]",
          "name": "_tokens",
          "type": "address[]"
        }
      ],
      "name": "getTokensData",
      "outputs": [
        {
          "internalType": "string[]",
          "name": "names",
          "type": "string[]"
        },
        {
          "internalType": "string[]",
          "name": "symbols",
          "type": "string[]"
        },
        {
          "internalType": "uint256[]",
          "name": "decimals",
          "type": "uint256[]"
        }
      ],
      "stateMutability": "view",
      "type": "function"
    },
    {
      "inputs": [
        {
          "internalType": "address",
          "name": "_trader",
          "type": "address"
        },
        {
          "internalType": "address[]",
          "name": "_assetAddresses",
          "type": "address[]"
        }
      ],
      "name": "getExternalBalances",
      "outputs": [
        {
          "internalType": "uint256[]",
          "name": "",
          "type": "uint256[]"
        }
      ],
      "stateMutability": "view",
      "type": "function"
    }
  ],
  "bytecode": "0x608060405260006100176001600160e01b0361006616565b600080546001600160a01b0319166001600160a01b0383169081178255604051929350917f8be0079c531659141344cd1fd0a4f28419497f9722a3daafe3b4186f6b6457e0908290a35061006a565b3390565b6118a5806100796000396000f3fe608060405234801561001057600080fd5b50600436106100cf5760003560e01c80638da5cb5b1161008c578063dc4d317111610066578063dc4d3171146101ac578063dd88adde146101bf578063f2fde38b146101df578063f7bb8415146101f2576100cf565b80638da5cb5b14610164578063c371472314610179578063d3c9cc2614610199576100cf565b806302209d96146100d457806306498e60146100fd5780631b68d10d1461011d5780636b5b8808146101255780636c92d0d11461013a578063715018a61461015c575b600080fd5b6100e76100e2366004611299565b610214565b6040516100f49190611792565b60405180910390f35b61011061010b366004611416565b6102ec565b6040516100f49190611532565b6100e7610497565b6101386101333660046113e7565b61049d565b005b61014d61014836600461125e565b6106d1565b6040516100f49392919061157f565b610138610996565b61016c610a1f565b6040516100f4919061151e565b61018c610187366004611211565b610a2f565b6040516100f491906115c1565b6101106101a736600461138b565b610b24565b6101386101ba3660046113e7565b610bb5565b6101d26101cd3660046113bb565b610e6a565b6040516100f491906115d4565b6101386101ed3660046111f6565b610ed8565b61020561020036600461138b565b610f98565b6040516100f4939291906117cb565b600061021e611044565b6001600160a01b031661022f610a1f565b6001600160a01b03161461025e5760405162461bcd60e51b8152600401610255906116a8565b60405180910390fd5b6002805460019081019182905560008281526020828152604090912092835584516102909390920191908501906110bf565b506002805460009081526001602052604080822060040191909155905490517fa35fec3c33a3546583876608bc467b00398be7ad08a751bff377f3636e1d45b8916102dc9185906117b2565b60405180910390a1505060025490565b60606002548411156103105760405162461bcd60e51b8152600401610255906116dd565b6000848152600160205260409020600201548311801590610341575060008481526001602052604090206002015482105b61035d5760405162461bcd60e51b815260040161025590611714565b8183111561037d5760405162461bcd60e51b815260040161025590611749565b8282036001016040519080825280602002602001820160405280156103ac578160200160208202803883390190505b5090506000835b83811161048e576001600087815260016020526040812060028101805460039092019291859081106103e157fe5b60009182526020808320909101546001600160a01b0316835282019290925260400190205460ff16600181111561041457fe5b141561048657600086815260016020526040902060020180548290811061043757fe5b9060005260206000200160009054906101000a90046001600160a01b0316838363ffffffff168151811061046757fe5b6001600160a01b03909216602092830291909101909101526001909101905b6001016103b3565b50509392505050565b60025481565b6104a5611044565b6001600160a01b03166104b6610a1f565b6001600160a01b0316146104dc5760405162461bcd60e51b8152600401610255906116a8565b6002548211156104fe5760405162461bcd60e51b8152600401610255906116dd565b60005b81518163ffffffff1610156106cc5760018060008581526020019081526020016000206003016000848463ffffffff168151811061053b57fe5b6020908102919091018101516001600160a01b031682528101919091526040016000205460ff16600181111561056d57fe5b141561058b5760405162461bcd60e51b8152600401610255906115df565b60016000848152602001908152602001600020600201828263ffffffff16815181106105b357fe5b602090810291909101810151825460018082018555600094855283852090910180546001600160a01b0319166001600160a01b0390931692909217909155858352908190526040822084519192600390910191859063ffffffff861690811061061857fe5b6020908102919091018101516001600160a01b03168252810191909152604001600020805460ff19166001838181111561064e57fe5b021790555060008381526001602081905260409091206004018054909101905581517f374195d639167721eee596157426d922ffedad376d1ec774751088e8de1dcd0d908490849063ffffffff85169081106106a657fe5b60200260200101516040516106bc92919061179b565b60405180910390a1600101610501565b505050565b6060806060835160405190808252806020026020018201604052801561070b57816020015b60608152602001906001900390816106f65790505b509250835160405190808252806020026020018201604052801561074357816020015b606081526020019060019003908161072e5790505b5091508351604051908082528060200260200182016040528015610771578160200160208202803883390190505b50905060005b84518163ffffffff16101561098e57848163ffffffff168151811061079857fe5b60200260200101516001600160a01b03166306fdde036040518163ffffffff1660e01b815260040160006040518083038186803b1580156107d857600080fd5b505afa1580156107ec573d6000803e3d6000fd5b505050506040513d6000823e601f3d908101601f191682016040526108149190810190611315565b848263ffffffff168151811061082657fe5b6020026020010181905250848163ffffffff168151811061084357fe5b60200260200101516001600160a01b03166395d89b416040518163ffffffff1660e01b815260040160006040518083038186803b15801561088357600080fd5b505afa158015610897573d6000803e3d6000fd5b505050506040513d6000823e601f3d908101601f191682016040526108bf9190810190611315565b838263ffffffff16815181106108d157fe5b6020026020010181905250848163ffffffff16815181106108ee57fe5b60200260200101516001600160a01b031663313ce5676040518163ffffffff1660e01b815260040160206040518083038186803b15801561092e57600080fd5b505afa158015610942573d6000803e3d6000fd5b505050506040513d601f19601f820116820180604052506109669190810190611441565b60ff16828263ffffffff168151811061097b57fe5b6020908102919091010152600101610777565b509193909250565b61099e611044565b6001600160a01b03166109af610a1f565b6001600160a01b0316146109d55760405162461bcd60e51b8152600401610255906116a8565b600080546040516001600160a01b03909116907f8be0079c531659141344cd1fd0a4f28419497f9722a3daafe3b4186f6b6457e0908390a3600080546001600160a01b0319169055565b6000546001600160a01b03165b90565b6060808251604051908082528060200260200182016040528015610a5d578160200160208202803883390190505b50905060005b8351811015610b1a57838181518110610a7857fe5b60200260200101516001600160a01b03166370a08231866040518263ffffffff1660e01b8152600401610aab919061151e565b60206040518083038186803b158015610ac357600080fd5b505afa158015610ad7573d6000803e3d6000fd5b505050506040513d601f19601f82011682018060405250610afb91908101906113a3565b828281518110610b0757fe5b6020908102919091010152600101610a63565b5090505b92915050565b6060600254821115610b485760405162461bcd60e51b8152600401610255906116dd565b60008281526001602090815260409182902060020180548351818402810184019094528084529091830182828015610ba957602002820191906000526020600020905b81546001600160a01b03168152600190910190602001808311610b8b575b50505050509050919050565b610bbd611044565b6001600160a01b0316610bce610a1f565b6001600160a01b031614610bf45760405162461bcd60e51b8152600401610255906116a8565b600254821115610c165760405162461bcd60e51b8152600401610255906116dd565b60005b81518163ffffffff1610156106cc5760018060008581526020019081526020016000206003016000848463ffffffff1681518110610c5357fe5b6020908102919091018101516001600160a01b031682528101919091526040016000205460ff166001811115610c8557fe5b14610ca25760405162461bcd60e51b815260040161025590611667565b6000600160008581526020019081526020016000206003016000848463ffffffff1681518110610cce57fe5b6020908102919091018101516001600160a01b03168252810191909152604001600020805460ff191660018381811115610d0457fe5b02179055506000610d2e84848463ffffffff1681518110610d2157fe5b6020026020010151611048565b60008581526001602052604090206002018054919250906000198101908110610d5357fe5b60009182526020808320909101548683526001909152604090912060020180546001600160a01b039092169183908110610d8957fe5b600091825260208083209190910180546001600160a01b0319166001600160a01b039490941693909317909255858152600190915260409020600201805480610dce57fe5b60008281526020808220830160001990810180546001600160a01b0319169055928301909355868152600190925260409091206004018054909101905582517fcadf6fd3968e653eef0f298763a80925d054059a599c46fadf9d319d9653bd86908590859063ffffffff8616908110610e4357fe5b6020026020010151604051610e5992919061179b565b60405180910390a150600101610c19565b6000600254831115610e8e5760405162461bcd60e51b8152600401610255906116dd565b60008381526001602081815260408084206001600160a01b03871685526003019091529091205460ff1681811115610ec257fe5b14610ece576000610ed1565b60015b9392505050565b610ee0611044565b6001600160a01b0316610ef1610a1f565b6001600160a01b031614610f175760405162461bcd60e51b8152600401610255906116a8565b6001600160a01b038116610f3d5760405162461bcd60e51b815260040161025590611621565b600080546040516001600160a01b03808516939216917f8be0079c531659141344cd1fd0a4f28419497f9722a3daafe3b4186f6b6457e091a3600080546001600160a01b0319166001600160a01b0392909216919091179055565b600160208181526000928352604092839020805481840180548651600296821615610100026000190190911695909504601f810185900485028601850190965285855290949193929091908301828280156110345780601f1061100957610100808354040283529160200191611034565b820191906000526020600020905b81548152906001019060200180831161101757829003601f168201915b5050505050908060040154905083565b3390565b6000805b6000848152600160205260409020600201548110156110b857600084815260016020526040902060020180546001600160a01b03851691908390811061108e57fe5b6000918252602090912001546001600160a01b031614156110b0579050610b1e565b60010161104c565b5092915050565b828054600181600116156101000203166002900490600052602060002090601f016020900481019282601f1061110057805160ff191683800117855561112d565b8280016001018555821561112d579182015b8281111561112d578251825591602001919060010190611112565b5061113992915061113d565b5090565b610a2c91905b808211156111395760008155600101611143565b80356001600160a01b0381168114610b1e57600080fd5b600082601f83011261117e578081fd5b813567ffffffffffffffff811115611194578182fd5b60208082026111a48282016117f4565b838152935081840185830182870184018810156111c057600080fd5b600092505b848310156111eb576111d78882611157565b8252600192909201919083019083016111c5565b505050505092915050565b600060208284031215611207578081fd5b610ed18383611157565b60008060408385031215611223578081fd5b61122d8484611157565b9150602083013567ffffffffffffffff811115611248578182fd5b6112548582860161116e565b9150509250929050565b60006020828403121561126f578081fd5b813567ffffffffffffffff811115611285578182fd5b6112918482850161116e565b949350505050565b6000602082840312156112aa578081fd5b813567ffffffffffffffff8111156112c0578182fd5b80830184601f8201126112d1578283fd5b803591506112e66112e18361181b565b6117f4565b8281528560208484010111156112fa578384fd5b82602083016020830137918201602001929092529392505050565b600060208284031215611326578081fd5b815167ffffffffffffffff81111561133c578182fd5b80830184601f82011261134d578283fd5b8051915061135d6112e18361181b565b828152856020848401011115611371578384fd5b61138283602083016020850161183f565b95945050505050565b60006020828403121561139c578081fd5b5035919050565b6000602082840312156113b4578081fd5b5051919050565b600080604083850312156113cd578182fd5b823591506113de8460208501611157565b90509250929050565b600080604083850312156113f9578182fd5b82359150602083013567ffffffffffffffff811115611248578182fd5b60008060006060848603121561142a578081fd5b505081359360208301359350604090920135919050565b600060208284031215611452578081fd5b815160ff81168114610ed1578182fd5b60008282518085526020808601955080818302840101818601855b848110156114ab57601f198684030189526114998383516114f2565b9884019892509083019060010161147d565b5090979650505050505050565b6000815180845260208085019450808401835b838110156114e7578151875295820195908201906001016114cb565b509495945050505050565b6000815180845261150a81602086016020860161183f565b601f01601f19169290920160200192915050565b6001600160a01b0391909116815260200190565b6020808252825182820181905260009190848201906040850190845b818110156115735783516001600160a01b03168352928401929184019160010161154e565b50909695505050505050565b6000606082526115926060830186611462565b82810360208401526115a48186611462565b83810360408501526115b681866114b8565b979650505050505050565b600060208252610ed160208301846114b8565b901515815260200190565b60208082526022908201527f444558546f6b656e5265676973747279203a204455504c49434154455f544f4b60408201526122a760f11b606082015260800190565b60208082526026908201527f4f776e61626c653a206e6577206f776e657220697320746865207a65726f206160408201526564647265737360d01b606082015260800190565b60208082526021908201527f444558546f6b656e5265676973747279203a20494e4143544956455f544f4b456040820152602760f91b606082015260800190565b6020808252818101527f4f776e61626c653a2063616c6c6572206973206e6f7420746865206f776e6572604082015260600190565b6020808252601f908201527f444558546f6b656e5265676973747279203a20494e56414c49445f4c49535400604082015260600190565b6020808252818101527f444558546f6b656e5265676973747279203a20494e56414c49445f52414e4745604082015260600190565b60208082526029908201527f444558546f6b656e5265676973747279203a20494e56414c49445f494e5645526040820152685445445f52414e474560b81b606082015260800190565b90815260200190565b9182526001600160a01b0316602082015260400190565b60008382526040602083015261129160408301846114f2565b6000848252606060208301526117e460608301856114f2565b9050826040830152949350505050565b60405181810167ffffffffffffffff8111828210171561181357600080fd5b604052919050565b600067ffffffffffffffff821115611831578081fd5b50601f01601f191660200190565b60005b8381101561185a578181015183820152602001611842565b83811115611869576000848401525b5050505056fea2646970667358221220634806c32aa7031ae733831c409faf2507c14658fa04da4c173d126b543368d164736f6c63430006020033",
  "source": "pragma solidity >=0.6.2;\npragma experimental ABIEncoderV2;\n\nimport '@openzeppelin/contracts/access/Ownable.sol';\nimport '@openzeppelin/contracts/token/ERC20/ERC20.sol';\n\n\n/// @title dexDAO Token Multi-Registry\n/// @notice Maintains multiple token lists, curated by the DAO\ncontract DEXTokenRegistry is Ownable {\n    event AddList(uint256 listId, string listName);\n    event AddToken(uint256 listId, address token);\n    event RemoveToken(uint256 listId, address token);\n\n    enum TokenStatus {NULL, ACTIVE}\n\n    struct TCR {\n        uint256 listId;\n        string listName;\n        address[] tokens;\n        mapping(address => TokenStatus) status;\n        uint256 activeTokenCount;\n    }\n\n    mapping(uint256 => TCR) public tcrs;\n    uint256 public listCount;\n\n    /// @notice Add new token list.\n    /// @param _listName Name of new list.\n    /// @return New list ID.\n    function addList(string memory _listName) public onlyOwner returns (uint256) {\n        listCount++;\n        tcrs[listCount].listId = listCount;\n        tcrs[listCount].listName = _listName;\n        tcrs[listCount].activeTokenCount = 0;\n        emit AddList(listCount, _listName);\n        return listCount;\n    }\n\n    /// @notice The owner can add new token(s) to existing list, by address.\n    /// @dev Attempting to add token addresses which are already in the list will cause revert.\n    /// @param _listId ID of list to add new tokens.\n    /// @param _tokens Array of token addresses to add.\n    function addTokens(uint256 _listId, address[] memory _tokens) public onlyOwner {\n        require(_listId <= listCount, 'DEXTokenRegistry : INVALID_LIST');\n        for (uint32 i = 0; i < _tokens.length; i++) {\n            require(\n                tcrs[_listId].status[_tokens[i]] != TokenStatus.ACTIVE,\n                'DEXTokenRegistry : DUPLICATE_TOKEN'\n            );\n            tcrs[_listId].tokens.push(_tokens[i]);\n            tcrs[_listId].status[_tokens[i]] = TokenStatus.ACTIVE;\n            tcrs[_listId].activeTokenCount++;\n            emit AddToken(_listId, _tokens[i]);\n        }\n    }\n\n    /// @notice The owner can remove token(s) on existing list, by address.\n    /// @dev Attempting to remove token addresses which are not active, or not present in the list, will cause revert.\n    /// @param _listId ID of list to remove tokens from.\n    /// @param _tokens Array of token addresses to remove.\n    function removeTokens(uint256 _listId, address[] memory _tokens) public onlyOwner {\n        require(_listId <= listCount, 'DEXTokenRegistry : INVALID_LIST');\n        for (uint32 i = 0; i < _tokens.length; i++) {\n            require(\n                tcrs[_listId].status[_tokens[i]] == TokenStatus.ACTIVE,\n                'DEXTokenRegistry : INACTIVE_TOKEN'\n            );\n            tcrs[_listId].status[_tokens[i]] = TokenStatus.NULL;\n            uint256 tokenIndex = getTokenIndex(_listId, _tokens[i]);\n            tcrs[_listId].tokens[tokenIndex] = tcrs[_listId].tokens[tcrs[_listId].tokens.length -\n                1];\n            tcrs[_listId].tokens.pop();\n            tcrs[_listId].activeTokenCount--;\n            emit RemoveToken(_listId, _tokens[i]);\n        }\n    }\n\n    /// @notice Get all tokens tracked by a token list\n    /// @param _listId ID of list to get tokens from.\n    /// @return Array of token addresses tracked by list.\n    function getTokens(uint256 _listId) public view returns (address[] memory) {\n        require(_listId <= listCount, 'DEXTokenRegistry : INVALID_LIST');\n        return tcrs[_listId].tokens;\n    }\n\n    /// @notice Get active tokens from a list, within a specified index range.\n    /// @param _listId ID of list to get tokens from.\n    /// @param _start Start index.\n    /// @param _end End index.\n    /// @return tokensRange Array of active token addresses in index range.\n    function getTokensRange(\n        uint256 _listId,\n        uint256 _start,\n        uint256 _end\n    ) public view returns (address[] memory tokensRange) {\n        require(_listId <= listCount, 'DEXTokenRegistry : INVALID_LIST');\n        require(\n            _start <= tcrs[_listId].tokens.length && _end < tcrs[_listId].tokens.length,\n            'DEXTokenRegistry : INVALID_RANGE'\n        );\n        require(_start <= _end, 'DEXTokenRegistry : INVALID_INVERTED_RANGE');\n        tokensRange = new address[](_end - _start + 1);\n        uint32 activeCount = 0;\n        for (uint256 i = _start; i <= _end; i++) {\n            if (tcrs[_listId].status[tcrs[_listId].tokens[i]] == TokenStatus.ACTIVE) {\n                tokensRange[activeCount] = tcrs[_listId].tokens[i];\n                activeCount++;\n            }\n        }\n    }\n\n    /// @notice Check if list has a given token address active.\n    /// @param _listId ID of list to get tokens from.\n    /// @param _token Token address to check.\n    /// @return Active status of given token address in list.\n    function isTokenActive(uint256 _listId, address _token) public view returns (bool) {\n        require(_listId <= listCount, 'DEXTokenRegistry : INVALID_LIST');\n        return tcrs[_listId].status[_token] == TokenStatus.ACTIVE ? true : false;\n    }\n\n    /// @notice Returns the array index of a given token address\n    /// @param _listId ID of list to get tokens from.\n    /// @param _token Token address to check.\n    /// @return index position of given token address in list.\n    function getTokenIndex(uint256 _listId, address _token) internal view returns (uint256) {\n        for (uint256 i = 0; i < tcrs[_listId].tokens.length; i++) {\n            if (tcrs[_listId].tokens[i] == _token) {\n                return i;\n            }\n        }\n    }\n\n    /// @notice Convenience method to get ERC20 metadata for given tokens.\n    /// @param _tokens Array of token addresses.\n    /// @return names for each token.\n    /// @return symbols for each token.\n    /// @return decimals for each token.\n    function getTokensData(address[] memory _tokens)\n        public\n        view\n        returns (\n            string[] memory names,\n            string[] memory symbols,\n            uint256[] memory decimals\n        )\n    {\n        names = new string[](_tokens.length);\n        symbols = new string[](_tokens.length);\n        decimals = new uint256[](_tokens.length);\n        for (uint32 i = 0; i < _tokens.length; i++) {\n            names[i] = ERC20(_tokens[i]).name();\n            symbols[i] = ERC20(_tokens[i]).symbol();\n            decimals[i] = ERC20(_tokens[i]).decimals();\n        }\n    }\n\n    /// @notice Convenience method to get account balances for given tokens.\n    /// @param _trader Account to check balances for.\n    /// @param _assetAddresses Array of token addresses.\n    /// @return Account balances for each token.\n    function getExternalBalances(address _trader, address[] memory _assetAddresses)\n        public\n        view\n        returns (uint256[] memory)\n    {\n        uint256[] memory balances = new uint256[](_assetAddresses.length);\n        for (uint256 i = 0; i < _assetAddresses.length; i++) {\n            balances[i] = ERC20(_assetAddresses[i]).balanceOf(_trader);\n        }\n        return balances;\n    }\n}\n",
  "sourcePath": "/mnt/d/DxSwap/All-Contract/DEXSWAP/dexswap-registry/contracts/dexTokenRegistry.sol",
  "compiler": {
    "name": "solc",
    "version": "0.6.2+commit.bacdbe57.Emscripten.clang"
  },
  "schemaVersion": "3.3.4",
  "updatedAt": "2021-05-23T23:51:14.848Z",
  "devdoc": {
    "methods": {
      "addList(string)": {
        "params": {
          "_listName": "Name of new list."
        },
        "returns": {
          "_0": "New list ID."
        }
      },
      "addTokens(uint256,address[])": {
        "details": "Attempting to add token addresses which are already in the list will cause revert.",
        "params": {
          "_listId": "ID of list to add new tokens.",
          "_tokens": "Array of token addresses to add."
        }
      },
      "getExternalBalances(address,address[])": {
        "params": {
          "_assetAddresses": "Array of token addresses.",
          "_trader": "Account to check balances for."
        },
        "returns": {
          "_0": "Account balances for each token."
        }
      },
      "getTokens(uint256)": {
        "params": {
          "_listId": "ID of list to get tokens from."
        },
        "returns": {
          "_0": "Array of token addresses tracked by list."
        }
      },
      "getTokensData(address[])": {
        "params": {
          "_tokens": "Array of token addresses."
        },
        "returns": {
          "decimals": "for each token.",
          "names": "for each token.",
          "symbols": "for each token."
        }
      },
      "getTokensRange(uint256,uint256,uint256)": {
        "params": {
          "_end": "End index.",
          "_listId": "ID of list to get tokens from.",
          "_start": "Start index."
        },
        "returns": {
          "tokensRange": "Array of active token addresses in index range."
        }
      },
      "isTokenActive(uint256,address)": {
        "params": {
          "_listId": "ID of list to get tokens from.",
          "_token": "Token address to check."
        },
        "returns": {
          "_0": "Active status of given token address in list."
        }
      },
      "owner()": {
        "details": "Returns the address of the current owner."
      },
      "removeTokens(uint256,address[])": {
        "details": "Attempting to remove token addresses which are not active, or not present in the list, will cause revert.",
        "params": {
          "_listId": "ID of list to remove tokens from.",
          "_tokens": "Array of token addresses to remove."
        }
      },
      "renounceOwnership()": {
        "details": "Leaves the contract without owner. It will not be possible to call `onlyOwner` functions anymore. Can only be called by the current owner.     * NOTE: Renouncing ownership will leave the contract without an owner, thereby removing any functionality that is only available to the owner."
      },
      "transferOwnership(address)": {
        "details": "Transfers ownership of the contract to a new account (`newOwner`). Can only be called by the current owner."
      }
    },
    "title": "dexDAO Token Multi-Registry"
  },
  "userdoc": {
    "methods": {
      "addList(string)": {
        "notice": "Add new token list."
      },
      "addTokens(uint256,address[])": {
        "notice": "The owner can add new token(s) to existing list, by address."
      },
      "getExternalBalances(address,address[])": {
        "notice": "Convenience method to get account balances for given tokens."
      },
      "getTokens(uint256)": {
        "notice": "Get all tokens tracked by a token list"
      },
      "getTokensData(address[])": {
        "notice": "Convenience method to get ERC20 metadata for given tokens."
      },
      "getTokensRange(uint256,uint256,uint256)": {
        "notice": "Get active tokens from a list, within a specified index range."
      },
      "isTokenActive(uint256,address)": {
        "notice": "Check if list has a given token address active."
      },
      "removeTokens(uint256,address[])": {
        "notice": "The owner can remove token(s) on existing list, by address."
      }
    },
    "notice": "Maintains multiple token lists, curated by the DAO"
  }
}